{
  "contractName": "Purchase",
  "abi": [
    {
      "inputs": [],
      "payable": true,
      "stateMutability": "payable",
      "type": "constructor"
    },
    {
      "anonymous": false,
      "inputs": [],
      "name": "Aborted",
      "type": "event"
    },
    {
      "anonymous": false,
      "inputs": [],
      "name": "ItemReceived",
      "type": "event"
    },
    {
      "anonymous": false,
      "inputs": [],
      "name": "PurchaseConfirmed",
      "type": "event"
    },
    {
      "constant": true,
      "inputs": [],
      "name": "buyer",
      "outputs": [
        {
          "internalType": "address payable",
          "name": "",
          "type": "address"
        }
      ],
      "payable": false,
      "stateMutability": "view",
      "type": "function"
    },
    {
      "constant": true,
      "inputs": [],
      "name": "seller",
      "outputs": [
        {
          "internalType": "address payable",
          "name": "",
          "type": "address"
        }
      ],
      "payable": false,
      "stateMutability": "view",
      "type": "function"
    },
    {
      "constant": true,
      "inputs": [],
      "name": "state",
      "outputs": [
        {
          "internalType": "enum Purchase.State",
          "name": "",
          "type": "uint8"
        }
      ],
      "payable": false,
      "stateMutability": "view",
      "type": "function"
    },
    {
      "constant": true,
      "inputs": [],
      "name": "value",
      "outputs": [
        {
          "internalType": "uint256",
          "name": "",
          "type": "uint256"
        }
      ],
      "payable": false,
      "stateMutability": "view",
      "type": "function"
    },
    {
      "constant": false,
      "inputs": [],
      "name": "abort",
      "outputs": [],
      "payable": false,
      "stateMutability": "nonpayable",
      "type": "function"
    },
    {
      "constant": false,
      "inputs": [],
      "name": "confirmPurchase",
      "outputs": [],
      "payable": true,
      "stateMutability": "payable",
      "type": "function"
    },
    {
      "constant": false,
      "inputs": [],
      "name": "confirmReceived",
      "outputs": [],
      "payable": false,
      "stateMutability": "nonpayable",
      "type": "function"
    }
  ],
  "bytecode": "0x608060405233600160006101000a81548173ffffffffffffffffffffffffffffffffffffffff021916908373ffffffffffffffffffffffffffffffffffffffff1602179055506002348161004f57fe5b04600081905550346000546002021461006757600080fd5b6106a0806100766000396000f3fe6080604052600436106100705760003560e01c80637150d8ae1161004e5780637150d8ae1461010e57806373fac6f014610165578063c19d93fb1461017c578063d6960697146101b557610070565b806308551a531461007557806335a063b4146100cc5780633fa4f245146100e3575b600080fd5b34801561008157600080fd5b5061008a6101bf565b604051808273ffffffffffffffffffffffffffffffffffffffff1673ffffffffffffffffffffffffffffffffffffffff16815260200191505060405180910390f35b3480156100d857600080fd5b506100e16101e5565b005b3480156100ef57600080fd5b506100f8610366565b6040518082815260200191505060405180910390f35b34801561011a57600080fd5b5061012361036c565b604051808273ffffffffffffffffffffffffffffffffffffffff1673ffffffffffffffffffffffffffffffffffffffff16815260200191505060405180910390f35b34801561017157600080fd5b5061017a610392565b005b34801561018857600080fd5b5061019161057e565b604051808260028111156101a157fe5b60ff16815260200191505060405180910390f35b6101bd610591565b005b600160009054906101000a900473ffffffffffffffffffffffffffffffffffffffff1681565b600160009054906101000a900473ffffffffffffffffffffffffffffffffffffffff1673ffffffffffffffffffffffffffffffffffffffff163373ffffffffffffffffffffffffffffffffffffffff161461023f57600080fd5b600080600281111561024d57fe5b600260149054906101000a900460ff16600281111561026857fe5b1461027257600080fd5b7f72c874aeff0b183a56e2b79c71b46e1aed4dee5e09862134b8821ba2fddbf8bf60405160405180910390a160028060146101000a81548160ff021916908360028111156102bc57fe5b0217905550600160009054906101000a900473ffffffffffffffffffffffffffffffffffffffff1673ffffffffffffffffffffffffffffffffffffffff166108fc600160009054906101000a900473ffffffffffffffffffffffffffffffffffffffff1673ffffffffffffffffffffffffffffffffffffffff16319081150290604051600060405180830381858888f19350505050158015610362573d6000803e3d6000fd5b5050565b60005481565b600260009054906101000a900473ffffffffffffffffffffffffffffffffffffffff1681565b600260009054906101000a900473ffffffffffffffffffffffffffffffffffffffff1673ffffffffffffffffffffffffffffffffffffffff163373ffffffffffffffffffffffffffffffffffffffff16146103ec57600080fd5b60018060028111156103fa57fe5b600260149054906101000a900460ff16600281111561041557fe5b1461041f57600080fd5b7fe89152acd703c9d8c7d28829d443260b411454d45394e7995815140c8cbcbcf760405160405180910390a160028060146101000a81548160ff0219169083600281111561046957fe5b0217905550600260009054906101000a900473ffffffffffffffffffffffffffffffffffffffff1673ffffffffffffffffffffffffffffffffffffffff166108fc6000549081150290604051600060405180830381858888f193505050501580156104d8573d6000803e3d6000fd5b50600160009054906101000a900473ffffffffffffffffffffffffffffffffffffffff1673ffffffffffffffffffffffffffffffffffffffff166108fc600160009054906101000a900473ffffffffffffffffffffffffffffffffffffffff1673ffffffffffffffffffffffffffffffffffffffff16319081150290604051600060405180830381858888f1935050505015801561057a573d6000803e3d6000fd5b5050565b600260149054906101000a900460ff1681565b600080600281111561059f57fe5b600260149054906101000a900460ff1660028111156105ba57fe5b146105c457600080fd5b6000546002023414806105d657600080fd5b7fd5d55c8a68912e9a110618df8d5e2e83b8d83211c57a8ddd1203df92885dc88160405160405180910390a133600260006101000a81548173ffffffffffffffffffffffffffffffffffffffff021916908373ffffffffffffffffffffffffffffffffffffffff1602179055506001600260146101000a81548160ff0219169083600281111561066257fe5b0217905550505056fea265627a7a72315820c1219e409a4f687420b627031f61ecd2fa262d653240cafe234bb7e469f583ce64736f6c63430005100032",
  "source": "// SPDX-License-Identifier: MIT\npragma solidity >=0.4.11;\n\ncontract Purchase {\n  uint public value;\n  address payable public seller;\n  address payable public buyer;\n  enum State {Created, Locked, Inactive}\n  State public state;\n\n  constructor() public payable {\n    seller = msg.sender;\n    value = msg.value / 2;\n    require((2 * value) == msg.value);\n  }\n\n  modifier condition(bool _condition) {\n    require(_condition);\n    _;\n  }\n\n  modifier onlyBuyer() {\n    require(msg.sender == buyer);\n    _;\n  }\n\n  modifier onlySeller() {\n    require(msg.sender == seller);\n    _;\n  }\n\n  modifier inState(State _state) {\n    require(state == _state);\n    _;\n  }\n\n  event Aborted();\n  event PurchaseConfirmed();\n  event ItemReceived();\n\n  /// Aborta la compra y reclama el ether.\n  /// Sólo puede ser llamado por el vendedor\n  /// antes de que el contrato se cierre.\n  function abort() public\n  onlySeller\n  inState(State.Created)\n  {\n    emit Aborted();\n    state = State.Inactive;\n    seller.transfer(seller.balance);\n  }\n\n  /// Confirma la compra por parte del comprador.\n  /// La transacción debe incluir la cantidad de ether\n  /// multiplicada por 2. El ether quedará bloqueado\n  /// hasta que se llame a confirmReceived.\n  function confirmPurchase() public\n  inState(State.Created)\n  condition(msg.value == (2 * value))\n  payable\n  {\n    emit PurchaseConfirmed();\n    buyer = msg.sender;\n    state = State.Locked;\n  }\n\n  /// Confirma que tú (el comprador) has recibido el\n  /// artículo. Esto desbloqueará el ether.\n  function confirmReceived() public\n  onlyBuyer\n  inState(State.Locked)\n  {\n    emit ItemReceived();\n    // Es importante que primero se cambie el estado\n    // para evitar que los contratos a los que se llama\n    // abajo mediante `send` puedan volver a ejecutar esto.\n    state = State.Inactive;\n\n    // NOTA: Esto permite bloquear los fondos tanto al comprador\n    // como al vendedor - debe usarse el patrón withdraw.\n\n    buyer.transfer(value);\n    seller.transfer(seller.balance);\n  }\n}\n",
  "sourcePath": "C:/Users/ihojo/WebStormProjects/ux-carriqui/contracts/Purchase.sol",
  "compiler": {
    "name": "solc",
    "version": "0.5.16+commit.9c3226ce.Emscripten.clang"
  },
  "schemaVersion": "3.3.2",
  "updatedAt": "2020-11-19T01:43:48.314Z",
  "networkType": "ethereum",
  "devdoc": {
    "methods": {}
  },
  "userdoc": {
    "methods": {
      "abort()": {
        "notice": "Aborta la compra y reclama el ether. Sólo puede ser llamado por el vendedor antes de que el contrato se cierre."
      },
      "confirmPurchase()": {
        "notice": "Confirma la compra por parte del comprador. La transacción debe incluir la cantidad de ether multiplicada por 2. El ether quedará bloqueado hasta que se llame a confirmReceived."
      },
      "confirmReceived()": {
        "notice": "Confirma que tú (el comprador) has recibido el artículo. Esto desbloqueará el ether."
      }
    }
  }
}